:020000040800F2
:100000006085002041030008054C0008F733000814
:100010004D030008550700082D5700080000000098
:10002000000000000000000000000000BF510008B8
:100030005907000800000000074C0008C1510008E3
:100040005B0300085B0300085B0300085B03000818
:100050005B0300085B0300085B0300085B03000808
:100060005B0300085B0300085B0300085B030008F8
:100070005B0300085B0300085B0300085B030008E8
:100080005B0300085B0300085B0300085B030008D8
:100090005B0300085B0300085B0300085B030008C8
:1000A0005B0300085B0300085B0300085B030008B8
:1000B0005B0300085B0300085B0300085B030008A8
:1000C0005B0300085B0300085B0300085B03000898
:1000D0005B0300081D5700085B0300085B03000872
:1000E0005B0300085B030008000000005B030008DE
:1000F0005B0300085B0300085B0300085B03000868
:100100005B0300085B0300085B0300085B03000857
:100110005B0300085B0300085B0300085B03000847
:100120005B0300085B0300085B0300085B03000837
:100130005B0300085B0300085B0300085B03000827
:1001400000000000000000000000000000000000AF
:100150005B0300085B0300085B0300085B03000807
:100160005B0300085B0300085B0300085B030008F7
:100170005B0300085B0300085B0300085B030008E7
:100180005B0300085B0300085B0300085B030008D7
:100190005B0300085B0300085B0300085B030008C7
:1001A0005B0300085B0300085B0300085B030008B7
:1001B0005B0300085B0300085B0300085B030008A7
:1001C0005B0300085B0300085B0300085B03000897
:1001D0005B0300085B0300085B0300085B03000887
:1001E0005B0300085B0300085B0300085B03000877
:1001F0005B0300085B0300085B0300085B03000867
:100200005B0300085B0300085B0300085B03000856
:100210005B0300085B0300085B0300085B03000846
:100220005B0300085B0300085B030008000000009C
:100230005B0300085B030008000000005B0300088C
:100240005B0300085B0300085B0300085B03000816
:100250005B0300085B0300085B0300085B03000806
:100260005B0300085B0300085B0300085B030008F6
:100270005B0300085B0300085B030008000000004C
:100280005B0300085B0300085B030008000000003C
:10029000000000005B03000800F002F800F041F8E5
:1002A0000AA090E8000C82448344AAF10107DA45D1
:1002B00001D100F036F8AFF2090EBAE80F0013F0E2
:1002C000010F18BFFB1A43F001031847B4F20100F5
:1002D000D4F20100103A24BF78C878C1FAD8520786
:1002E00024BF30C830C144BF04680C6070470000B0
:1002F0000023002400250026103A28BF78C1FBD82F
:10030000520728BF30C148BF0B607047752900F005
:100310004580002070471FB507F0E8FD1FBD10B5F0
:1003200010BD00F0E9F91146FFF7F5FF06F00CF9F2
:1003300000F007FA03B4FFF7F2FF03BC05F031FA4F
:100340000948804709480047FEE7FEE7FEE7FEE769
:10035000FEE7FEE7FEE7FEE7FEE7FEE704480549A5
:10036000054A064B70470000C95100089902000871
:10037000607B002060850020607D0020607D002083
:10038000704700000FB4044910B503AA029800F0AA
:100390007DF910BC5DF814FB1C0000202DE9F04134
:1003A0000646002410687529314616A510D0AFF313
:1003B0000080002802DA404213A507E031688A076E
:1003C00001D512A502E0490704D511A5012401E0D9
:1003D000AFF3008000210A2206F1240709E0B0FBF8
:1003E000F2FCB0FBF2F302FB1C00303078541846EC
:1003F000491C0028F3D123462A463046BDE8F04187
:1004000000F0EBB8000000002D0000002B00000001
:10041000200000002DE9F0410F460546002028622B
:100420002846E968884770B3252805D0D5E9012119
:100430009047286A401CF2E7E9682846002688476A
:100440006C2804460AD0682C08D04C2C35D06A2C75
:1004500031D0742C31D07A2C2FD016E0E9680646C2
:1004600028468847B042044608D16C2E23D04FF46A
:1004700080662846E9688847044606E06C2E03D06B
:100480004FF4807601E01EE04026E4B1A4F1410083
:10049000192802D8203446F400663A4621462846F8
:1004A0002E60FFF733FF60B1012808D0FF1D27F051
:1004B00007070837B4E78026DBE70026D9E73F1DAA
:1004C000AEE72046B2E7286ABDE8F08110B5431CCC
:1004D00002E010F8011B71B18107FAD14FF001322F
:1004E00002C88C1A8C4314EAC211F9D0C01A0A0649
:1004F00003D0C01E10BDC01A10BD0A0401D0801E5A
:1005000010BD0902FCD0401E10BD10B5203AC0F04D
:100510000B80B1E81850203AA0E81850B1E8185004
:10052000A0E81850BFF4F5AF5FEA027C24BFB1E841
:100530001850A0E8185044BF18C918C0BDE81040B2
:100540005FEA827C24BF51F8043B40F8043B08BFBB
:100550007047D20728BF31F8023B48BF11F8012B82
:1005600028BF20F8023B48BF00F8012B70474FF02E
:10057000000200B5134694469646203922BFA0E8F3
:100580000C50A0E80C50B1F12001BFF4F7AF0907FF
:1005900028BFA0E80C5048BF0CC05DF804EB8900F0
:1005A00028BF40F8042B08BF704748BF20F8022B33
:1005B00011F0804F18BF00F8012B7047704770474B
:1005C0007047704710B500F073F8006810BD10B5A3
:1005D000044600F06DF8046010BD2DE9F0470D46AB
:1005E00099469246044600F124080168880604D51D
:1005F000E06921F01001216000E00120A84201DD46
:10060000471B00E00027A1697A1902EB0900081ACC
:10061000A0612078C00602D42046AFF300800026F7
:1006200008E0D4E901211AF806009047206A401C2E
:10063000761C20624E45F4DB2078C0060AD52046A1
:10064000AFF3008006E0D4E9012130209047206A12
:10065000401C2062381EA7F10107F4DC07E0D4E952
:10066000012118F805009047206A401C2062281ECE
:10067000A5F10105F3DC2046AFF3008020780006E9
:1006800002D50220BDE8F0870120FBE7074B70B5DB
:100690000D467B4400F015F80446284600F024F887
:1006A00010B14FF0FF3070BD204670BDA358000060
:1006B00000487047007B002001694A1C02610878ED
:1006C000704700B58FB0CDE9013100210591054992
:1006D0007944CDE9031011466846FFF79BFE0FB041
:1006E00000BD0000E5FFFFFF007B00F080007047C9
:1006F00000487047007B00207546FFF7F9FFAE46C3
:1007000005006946534620F00700854618B020B51D
:10071000FFF724FEBDE820404FF000064FF0000731
:100720004FF000084FF0000B21F00701AC46ACE899
:10073000C009ACE8C009ACE8C009ACE8C0098D4606
:10074000704710B50446AFF300802046BDE8104066
:10075000FFF7F0BD00BFFEE77047000070B504462C
:100760000CB9012070BD94F83500022803D0802018
:1007700060650120F6E7DC492068884249D0DA4903
:1007800018312068884244D0D749303120688842E7
:100790003FD0D5494831206888423AD0D2496031AB
:1007A0002068884235D0D04978312068884230D0DE
:1007B000CD499031206888422BD0CB49A8312068A0
:1007C000884226D0C9492068884222D0C7491831BA
:1007D000206888421DD0C54930312068884218D031
:1007E000C24948312068884213D0C049603120682E
:1007F00088420ED0BD4978312068884209D0BB4973
:1008000090312068884204D0B849A83120688842D5
:1008100001D1012000E00020F0B3042084F835006D
:10082000B149206888424BD0AF49183120688842CE
:1008300046D0AD4930312068884241D0AA4948317C
:10084000206888423CD0A84960312068884237D06F
:10085000A54978312068884232D0A3499031206878
:1008600088422DD0A049A8312068884228D09F49CD
:100870002068884224D09D491831206888421FD0C2
:100880009A493031206888421AD098494831206806
:10089000884215D0954900E020E060312068884208
:1008A0000ED0924978312068884209D08F49903122
:1008B0002068884204D08D49A8312068884206D13A
:1008C0002068006820F001002168086009E12068C4
:1008D000006820F001002168086002E120680068DB
:1008E00020F00E00216808607F492068884249D0C6
:1008F0007D4918312068884244D07B4930312068D6
:1009000088423FD078494831206888423AD07649B9
:1009100060312068884235D0734978312068884238
:1009200030D071499031206888422BD06E49A8316F
:100930002068884226D06D492068884222D06B49C1
:100940001831206888421DD06849303120688842BB
:1009500018D0664948312068884213D06349603115
:10096000206888420ED0614978312068884209D0D9
:100970005E4990312068884204D05C49A8312068E3
:10098000884206D12068006820F0010021680860D4
:1009900005E02068006820F00100216808605249E5
:1009A0002068884270D050491831206888426BD046
:1009B0004D4930312068884266D04B494831206823
:1009C000884261D048496031206888425CD04649FD
:1009D00078312068884257D0434990312068884256
:1009E00052D04149A831206888424DD03F49206803
:1009F000884249D03D4918312068884244D03B495B
:100A00003031206888423FD03849483120688842D8
:100A10003AD0364960312068884235D03349783140
:100A20002068884230D031499031206888422BD0EC
:100A30002E49A8312068884226D02D492068884256
:100A400022D02B491431206888421DD028492831F2
:100A50002068884218D026493C312068884213D04B
:100A600023495031206888420ED0214964312068E2
:100A7000884209D01E4978312068884204D01C4938
:100A80008C312068884201D1012000E00020D8B1DB
:100A9000206E006820F48070216E0860A56D94F8C7
:100AA0005C0000F01F01012088406860D4E9191043
:100AB0004860E06E40B1E06E006820F48070E16E46
:100AC0000860D4E91C10486000BF002084F834009E
:100AD00000BF012084F83500206D10B12046216D43
:100AE000884700203EE6000010000240100402404B
:100AF0000854025810B50446A0B204F0D7FE10BD49
:100B00000348006840F00100014908607047000098
:100B100020040058F8B502460023734DDEE001279B
:100B20009F400E6806EA0704002C71D04E68022E22
:100B300002D04E68122E13D1DF0802F1200656F8BB
:100B400027005E07F70E0F26BE40B0435F07FF0E7B
:100B50000E69BE403043DF0802F1200646F8270048
:100B600010685F000326BE40B0430E7906F003060E
:100B70005F00BE40304310604E68012E08D04E68C2
:100B8000022E05D04E68112E02D04E68122E13D1BF
:100B900090685F000326BE40B0435F00CE68BE4051
:100BA00030439060506801269E40B0430E79C6F3F2
:100BB00000169E4030435060D0685F000326BE4060
:100BC000B0435F008E68BE403043D0604E6806F090
:100BD0008056B6F1805F1BD100BF444E366846F0A8
:100BE0000206424F3E603E46366806F00206009618
:100BF00000BF00BF3E4E9F0856F827009E07370FE4
:100C00000F26BE40B0433B4EB24202D100262EE03A
:100C100063E0394EB24201D1012628E0374EB2429C
:100C200001D1022623E0364EB24201D103261EE056
:100C3000344EB24201D1042619E0334EB24201D102
:100C4000052614E0314EB24201D106260FE0304EA7
:100C5000B24201D107260AE02E4EB24201D1082647
:100C600005E02D4EB24201D1092600E00A269F0779
:100C70003F0FBE4030431E4E9F0846F827002868AD
:100C8000A0434E6806F48036B6F5803F00D120437D
:100C900028606868A0434E6806F40036B6F5003F49
:100CA00000D1204368604FF0B0463068A0434E68E2
:100CB00006F48016B6F5801F00D120434FF0B046F1
:100CC00030607068A0434E6806F40016B6F5001F49
:100CD00000D120434FF0B04670605B1C0E68DE40D0
:100CE000002E7FF41CAFF8BD80000058F444025879
:100CF0000804005800000258000402580008025876
:100D0000000C025800100258001402580018025833
:100D1000001C0258002002580024025802461369A1
:100D20000B400BB1012000E0002070470AB1816147
:100D300001E00B048361704701480068000C7047B4
:100D40000010005C0148006870470000240000208B
:100D5000024692F8410020282DD100BF92F84000B1
:100D6000012801D102207047012082F8400000BF15
:100D7000242082F841001068006820F00100136808
:100D800018601068006820F48050136818601068BC
:100D900000680843136818601068006840F001009C
:100DA00013681860202082F8410000BF002082F8FC
:100DB000400000BFD7E70220D5E710B502460B463A
:100DC00092F8410020282AD100BF92F84000012863
:100DD00001D1022010BD012082F8400000BF242074
:100DE00082F841001068006820F00100146820605B
:100DF0001068016821F4706141EA03211068016004
:100E00001068006840F0010014682060202082F81B
:100E1000410000BF002082F8400000BFDAE7022056
:100E2000D8E710B504460CB9012010BD242084F881
:100E300041002068006820F0010021680860204619
:100E400000F0E2F90020606484F84100206384F837
:100E5000420000BF84F8400000BF00BFE5E7014644
:100E600091F841007047000010B504460CB901200C
:100E700010BD94F8410028B9002084F840002046B5
:100E800000F0C3F9242084F841002068006820F0B5
:100E9000010021680860606820F0706021680861C6
:100EA0002068806820F4004021688860E06801289C
:100EB00005D1A06840F400402168886004E0A06883
:100EC00040F4044021688860E068022802D1800272
:100ED00021684860206840681349084321684860D9
:100EE0002068C06820F400402168C860D4E904018B
:100EF0000843A16940EA01202168C860D4E90701DC
:100F00000843216808602068006840F001002168FB
:100F1000086000206064202084F8410000202063E5
:100F200084F8420000BFA3E7008000022DE9FC47DF
:100F300004460F4690461E460020019094F841005A
:100F4000202872D120688069C0F3C03010B102201F
:100F5000BDE8FC8700BF94F84000012801D10220C1
:100F6000F6E7012084F8400000BF242084F8410007
:100F70000020606400BFE068012806D1C7F30900C3
:100F800040F4005040F0007003E0C7F3090040F463
:100F9000205021684860FFF7D5FE0546206880692B
:100FA000C0F3401920688069C0F3001A1DE0701C6E
:100FB00098B1FFF7C7FE401BB04200D86EB92020A1
:100FC00084F84100606C40F02000606400BF0020A5
:100FD00084F8400000BF0120BAE720688069C0F3B0
:100FE000401920688069C0F3001AB9F1000F02D1DE
:100FF000BAF1000FDBD020688069C0F30010A8B9F7
:101000003346002220212046009502F071FA08B1F3
:1010100001209DE720202168C86184F8410000BFBD
:10102000002084F8400000BF92E73AE033460022F7
:1010300020212046009502F05BFA08B1012087E7E5
:1010400010202168C86120202168C86101984045AE
:1010500012D12068406840F48040216848603346DF
:10106000002220212046009502F042FA08B101201A
:101070006EE720202168C8610198401C019001980A
:101080004045FFF478AF202084F84100606C40F0C8
:101090002000606400BF002084F8400000BF0120F1
:1010A00056E7022054E700002DE9F843044689463C
:1010B00016461F46DDF8208094F84100202871D1A3
:1010C00000BF94F84000012802D10220BDE8F88357
:1010D000012084F8400000BFFFF734FE05461923C5
:1010E0000122D1032046009502F002FA08B1012046
:1010F000ECE7212084F84100102084F84200002011
:101100006064666267856063608DFF280BD9FF208D
:1011100020853B48009094F82820C3024946204689
:1011200002F0CCF90AE0608D20853548009094F8F3
:10113000282003034946204602F0C0F93FE02A4632
:101140004146204602F02EFA08B10120BEE7606A4F
:10115000007821688862606A401C6062608D401E71
:101160006085208D401E2085608D40B3208D30BB72
:101170004346002280212046009502F0B9F908B1CB
:101180000120A3E7608DFF280DD9FF2020850020D6
:10119000009094F828204FF080734946204602F0D2
:1011A0008DF90CE02AE0608D20850020009094F8F5
:1011B00028204FF000734946204602F07FF9608DE9
:1011C0000028BCD12A464146204602F0C0F908B1A9
:1011D00001207BE720202168C86120684068094918
:1011E000084021684860202084F84100002084F8ED
:1011F000420000BF84F8400000BF67E7022065E7B7
:101200000020008000E800FE704770470348006837
:101210000349097808440149086070472400002008
:101220002C00002010B5052000F096F801F004F81D
:1012300010490968C1F303210F4A515C01F01F01F5
:10124000C8400E4908600B48006800F00F001146C6
:10125000085C00F01F0109480068C84008490860A0
:101260000F2000F00FF808B1012010BD00F036F893
:101270000020FAE718440258F67E0008100000200B
:101280001400002070B504461148007808B9012008
:1012900070BD0F4800784FF47A71B1FBF0F00D4942
:1012A0000968B1FBF0F5284601F010FE08B10120F5
:1012B000EEE7102C07D200222146501E00F00FF856
:1012C0000548046001E00120E2E70020E0E70000BB
:1012D0002C000020100000202800002070472DE97D
:1012E000F05F80460D46164604F022FA074639465E
:1012F0002A46334601F00700C0F1070ABAF1040F8D
:1013000002D94FF0040A01E0C0F1070AD14600F10A
:10131000040ABAF1070F02D24FF0000A01E0A0F16F
:10132000030AD4464FF0010A0AFA09FAAAF1010A9F
:101330000AEA020A0AFA0CFA4FF0010B0BFA0CFB4C
:10134000ABF1010B0BEA030B4AEA0B0421464046C2
:1013500004F0F6F9BDE8F09F00BF00F00702064B6D
:1013600019684FF6FF031940044B0B4343EA02216F
:10137000014B196000BF70470CED00E00000FA055A
:101380000348006840F08070014908607047000021
:101390000C48025810B500F04FFF07490968C1F327
:1013A0000321064A515C01F01F01C840044908604E
:1013B0000846006810BD000018440258F67E000878
:1013C000100000202DE9F04104460025A8462068C1
:1013D00000F00060B0F1006F30D1606E48B1B0F540
:1013E000801F0DD0B0F5001F10D0B0F5401F15D1F3
:1013F00013E0F948006840F40030F74908600FE056
:101400000221201D03F000FC054609E0022104F141
:10141000240003F0ABFC054602E001E0012500BF1B
:1014200000BF55B9EC482430006820F44010616ECC
:101430000843E9492431086000E0A846208800F408
:101440008070B0F5807F2DD1606D05281AD2DFE85D
:1014500000F0030A10171800DF48006840F400305D
:10146000DD49086010E00021201D03F0CDFB05469A
:101470000AE0002104F1240003F078FC054603E0B3
:1014800002E001E0012500BF00BF55B9D248243079
:10149000006820F00700616D0843CF4924310860DF
:1014A00000E0A846208800F40070B0F5007F33D13A
:1014B000A06D802817D003DC40B140281CD10CE07F
:1014C000C02817D0B0F5807F16D114E0C24800685C
:1014D00040F40030C049086010E00021201D03F0F6
:1014E00093FB05460AE0002104F1240003F03EFCD2
:1014F000054603E002E001E0012500BF00BF55B949
:10150000B5482430006820F4E070A16D0843B2496A
:101510002431086000E0A846208800F48060B0F51F
:10152000806F38D1D4F8A400B0F5800F19D004DC56
:1015300050B1B0F5001F1DD10DE0B0F5C00F17D0B0
:10154000B0F5000F16D114E0A348006840F4003055
:10155000A149086010E00021201D03F055FB05465D
:101560000AE0002104F1240003F000FC054603E03A
:1015700002E001E0012500BF00BF5DB996482C30B4
:10158000006820F46000D4F8A410084392492C317C
:10159000086000E0A846208800F40060B0F5006F05
:1015A00038D1D4F8A800B0F1007F19D004DC50B1D4
:1015B000B0F1807F1DD10DE0B0F1407F17D0B0F1C8
:1015C000806F16D114E08448006840F400308249EE
:1015D000086010E00021201D03F016FB05460AE01C
:1015E000002104F1240003F0C1FB054603E002E002
:1015F00001E0012500BF00BF5DB977482C300068CD
:1016000020F0E060D4F8A810084373492C3108603A
:1016100000E0A846206800F00070B0F1007F27D1FC
:10162000A06CA0B1102804D0202809D030280FD1F8
:101630000CE06948006840F400306749086009E040
:101640000221201D03F0E0FA054603E002E001E07C
:10165000012500BF00BF55B95F482030006820F069
:101660003000A16C08435C492031086000E0A846C6
:10167000208800F48050B0F5805F36D1E06DB0F581
:10168000005F19D004DC50B1B0F5805F1DD10DE0D2
:10169000B0F5405F17D0B0F5804F16D114E04E483A
:1016A000006840F400304C49086010E00021201D23
:1016B00003F0AAFA05460AE0002104F1240003F031
:1016C00055FB054603E002E001E0012500BF00BF35
:1016D00055B941482430006820F4E040E16D0843EA
:1016E0003D492431086000E0A846208800F40050FD
:1016F000B0F5005F34D1206EB0F5403F1DD007DC5F
:1017000068B1B0F5803F0BD0B0F5003F18D10DE0C7
:10171000B0F5802F12D0B0F5A02F11D10FE011E05D
:101720000121201D03F070FA05460BE0012104F1B0
:10173000240003F01BFB054604E003E002E001E0A7
:10174000012500BF00BF55B923482430006820F4AC
:10175000E020216E084320492431086000E0A846BB
:10176000208800F48040B0F5804F38D1D4F8AC0028
:10177000B0F1405F1DD007DC68B1B0F1805F0BD0E5
:10178000B0F1005F18D10DE0B0F1804F12D0B0F190
:10179000A04F11D10FE011E00121201D03F034FA18
:1017A00005460BE0012104F1240003F0DFFA0546B1
:1017B00004E003E002E001E0012500BF00BF6DB9D5
:1017C00005482C30006820F0E040D4F8AC10084305
:1017D00001492C31086002E02C440258A8462088B8
:1017E00000F40040B0F5004F26D1E06E98B1B0F1A2
:1017F000805F03D0B0F1005F0ED106E0F9480068C9
:1018000040F40030F749086008E00121201D03F092
:10181000FBF9054602E001E0012500BF00BF55B914
:10182000F0482430006820F04050E16E0843ED4954
:101830002431086000E0A846206800F08070B0F114
:10184000807F27D1606CA0B1012804D0022809D084
:1018500003280FD10CE0E348006840F40030E14970
:10186000086009E00221201D03F0CEF9054603E0DF
:1018700002E001E0012500BF00BF55B9D948203082
:10188000006820F00300616C0843D64920310860ED
:1018900000E0A846206800F48000B0F5800F7DD1FC
:1018A000D148006840F48070CF490860FFF74AFAD9
:1018B000064606E0FFF746FA801B642801D9032597
:1018C00005E0C948006800F480700028F2D000BF2D
:1018D00085BBC4484430006800F44070B4F8B010D0
:1018E00001F44071884213D0BE484430006820F4AF
:1018F0004077BC484430006840F48030B9494431F6
:1019000008600846006820F48030086008460760D8
:10191000D4F8B000B0F5807F15D1FFF713FA064672
:1019200009E0FFF70FFA801B41F28831884202D9A3
:10193000032507E038E0AB4844300068C0F34000BE
:101940000028EED000BF55BB00BFB4F8B00000F4D3
:101950004070B0F5407F0ED1A2481C38006820F4DA
:101960007C51A24AD4F8B000104041EA10109D49C1
:101970001C39086007E09B481C38006820F47C5044
:1019800098491C390860974844300068B4F8B01092
:10199000C1F30B0108439349443101E005E001E044
:1019A000086002E0A84600E0A846207800F00100A8
:1019B00068B3A06F182819D005DC48B1082808D0F2
:1019C000102816D10BE0202811D0282811D10FE0C3
:1019D00011E00121201D03F017F905460BE001215C
:1019E00004F1240003F0C2F9054604E003E002E03C
:1019F00001E0012500BF00BF55B97A4828300068D2
:101A000020F03800A16F084376492831086000E0D3
:101A1000A846207800F00200022828D1606F06282E
:101A200015D2DFE800F003040A11121311E00121BE
:101A3000201D03F0E9F805460BE0012104F1240024
:101A400003F094F9054604E003E002E001E001251B
:101A500000BF00BF55B963482830006820F0070078
:101A6000616F08435F492831086000E0A84620788C
:101A700000F0040004282AD1D4F89000062815D2DA
:101A8000DFE800F003040A11121311E00121201D08
:101A900003F0BAF805460BE0012104F1240003F03D
:101AA00065F9054604E003E002E001E0012500BF1E
:101AB00000BF5DB94B482C30006820F00700D4F817
:101AC0009010084347492C31086000E0A846207870
:101AD00000F02000202836D1D4F88C00B0F1405F0F
:101AE0001DD007DC68B1B0F1805F0BD0B0F1005FB2
:101AF00018D10DE0B0F1804F12D0B0F1A04F11D14C
:101B00000FE011E00021201D03F07EF805460BE0F8
:101B1000022104F1240003F029F9054604E003E062
:101B200002E001E0012500BF00BF5DB92D4828306B
:101B3000006820F0E040D4F88C100843294928318F
:101B4000086000E0A846207800F04000402836D128
:101B5000D4F89800B0F5406F1DD007DC68B1B0F53F
:101B6000806F0BD0B0F5006F18D10DE0B0F5805F3D
:101B700012D0B0F5A05F11D10FE011E00021201DBF
:101B800003F042F805460BE0022104F1240003F0C3
:101B9000EDF8054604E003E002E001E0012500BFA6
:101BA00000BF5DB90F482C30006820F4E050D4F835
:101BB000981008430B492C31086000E0A8462078B3
:101BC00000F0800080283AD1D4F89C00B0F5C04FD6
:101BD00023D00DDC98B1B0F5005F11D0B0F5804F87
:101BE0001ED113E02C44025800480258FFFCFF0F9E
:101BF000B0F5004F12D0B0F5204F11D10FE011E039
:101C00000021201D03F000F805460BE0022104F13D
:101C1000240003F0ABF8054604E003E002E001E035
:101C2000012500BF00BF4DB9AD48006820F46040F9
:101C3000D4F89C100843AA49086000E0A846207820
:101C400000F00800082817D1D4F88000B0F5805FB4
:101C500007D1022104F1240003F088F808B14FF005
:101C600001089F48001F006820F44050D4F88010FD
:101C700008439B49091F0860207800F010001028D5
:101C800015D1D4F89400B0F5807F07D1022104F17A
:101C9000240003F06BF808B14FF001089048006889
:101CA00020F44070D4F8941008438D4908602068EF
:101CB00000F40020B0F5002F26D1D4F8A00030B1F8
:101CC000B0F5803F09D0B0F5003F0ED10CE0002107
:101CD000201D02F099FF054609E0022104F12400CD
:101CE00003F044F8054602E001E0012500BF00BF13
:101CF0004DB97B48006820F44030D4F8A010084368
:101D00007749086000E0A846206800F48020B0F51C
:101D1000802F2DD1D4F88400B0F5801F06D0B0F507
:101D2000001F0CD0B0F5401F11D10FE06C482C38CB
:101D3000006840F400306A492C39086009E001214C
:101D400004F1240003F012F8054602E001E0012549
:101D500000BF00BF5DB96248001F006820F440105A
:101D6000D4F8841008435E49091F086000E0A846C3
:101D7000206800F48030B0F5803F24D1E06C18B1C9
:101D8000B0F5803F0FD108E055482C38006840F48A
:101D9000003053492C39086007E00221201D02F071
:101DA00033FF054601E0012500BF00BF55B94C488F
:101DB0000C38006820F48030E16C084348490C3945
:101DC000086000E0A846206800F00050B0F1005F15
:101DD00007D1022104F1240002F0C8FF08B14FF03E
:101DE0000108206800F40030B0F5003F27D1E06F13
:101DF000A0B1B0F5807F06D0B0F5007F0CD0B0F573
:101E0000407F0CD109E036482C38006840F400309F
:101E100033492C39086004E003E002E001E00125C9
:101E200000BF00BF55B92E48001F006820F4407065
:101E3000E16F08432A49091F086000E0A8462068AE
:101E400000F48010B0F5801F09D1254808380068DB
:101E500020F00040216F08432149083908602068BC
:101E600000F40010B0F5001F09D11D4808380068C3
:101E700020F08070A16E0843194908390860206875
:101E800000F08040B0F1804F11D100BF14484838B5
:101E9000006820F40040124948390860084600688C
:101EA000D4F8B81008430E494839086000BF2068CC
:101EB00000F00040B0F1004F09D109480C3800682B
:101EC00020F04050216D084305490C390860B8F1F5
:101ED000000F02D10020BDE8F0810120FBE70000E7
:101EE000584402582DE9F04104460D4614B901202A
:101EF000BDE8F081B648006800F00F00A8420ED29D
:101F0000B348006820F00F002843B1490860084634
:101F1000006800F00F00A84201D00120E8E7207817
:101F200000F0040004280ED1AA492069096801F0D4
:101F30007001884207D9A748006820F07000216925
:101F40000843A4490860207800F00800082811D14F
:101F5000A049091D6069096801F07001884209D92A
:101F60009C48001D006820F0700061690843994991
:101F7000091D0860207800F01000102811D1954943
:101F8000091DA069096801F4E061884209D99148F6
:101F9000001D006820F4E060A16908438D49091D17
:101FA0000860207800F02000202811D189490831EC
:101FB000E069096801F07001884209D98548083054
:101FC000006820F07000E169084382490831086028
:101FD000207800F0020002280ED17E49E0680968EE
:101FE00001F00F01884207D97A48006820F00F00FD
:101FF000E168084377490860207800F00100002874
:1020000050D07448006820F47060A168084371499A
:1020100008606068022807D16E4818380068C0F36D
:102020004040F8B9012063E76068032807D1694898
:1020300018380068C0F34060A0B9012058E7606814
:10204000012807D1634818380068C0F3002048B958
:1020500001204DE75F4818380068C0F3800008B9D8
:10206000012045E75B480838006820F007006168F8
:102070000843584908390860FEF764FE064608E040
:10208000FEF760FE801B41F28831884201D90320AF
:102090002EE750480838006800F038006168B0EB5F
:1020A000C10FEDD1207800F0020002280ED149497D
:1020B000E068096801F00F01884207D245480068CE
:1020C00020F00F00E168084342490860404800687A
:1020D00000F00F00A8420ED93D48006820F00F0024
:1020E00028433B4908600846006800F00F00A842FA
:1020F00001D00120FCE6207800F0040004280ED175
:1021000034492069096801F07001884207D23148DA
:10211000006820F07000216908432E49086020788B
:1021200000F00800082811D12A49091D60690968D2
:1021300001F07001884209D22648001D006820F095
:102140007000616908432349091D0860207800F088
:102150001000102811D11F49091DA069096801F458
:10216000E061884209D21B48001D006820F4E0604D
:10217000A16908431749091D0860207800F0200074
:10218000202811D113490831E069096801F0700174
:10219000884209D20F480830006820F07000E169D9
:1021A00008430C490831086000F046F809490968FD
:1021B000C1F30321084A515C01F01F01C8400749DF
:1021C000086007480068FFF75DF8074638468FE665
:1021D0000020005218440258F67E0008100000202B
:1021E0002800002010B5FFF7D5F80749096801F06D
:1021F0000F01064A515C01F01F01C8400449086004
:102200000846006810BD000018440258F67E000819
:102210001400002010B5FFF7E5FF05490968C1F378
:102220000211044A515C01F01F01C84010BD0000BA
:102230001C440258F67E0008F0B5824E366806F05F
:10224000380636B1082E15D0102E15D0182E7DD197
:1022500014E07C4E103E3668C6F3401646B1794E07
:10226000103E3668C6F3C107774E26FA07F000E045
:102270007548E5E07548E3E07548E1E0714E1836D1
:10228000366806F003046F4E18363668C6F305113B
:102290006C4E1C36366806F001056A4E24363668E8
:1022A000C6F3CC0616FB05F601EE106AB8EE410A3D
:1022B000002971D024B1012C50D0022C6DD16DE0D9
:1022C000604E103E3668C6F340163EB35D4E103E7B
:1022D0003668C6F3C1075C4E26FA07F301EE103AE2
:1022E000F8EE411A01EE101AB8EE411A81EE812A79
:1022F0009FED581AC0EE011A524E20363668C6F3CA
:10230000080601EE106AB8EE411A31EE811AF7EEB6
:10231000001A31EE211A62EE010A1EE001EE101AD7
:10232000B8EE411ADFED4C1A81EE812A9FED491A71
:10233000C0EE011A434E20363668C6F3080601EE99
:10234000106AB8EE411A31EE811A00E076E0F7EE3D
:10235000001A31EE211A62EE010A5BE001EE101A5A
:10236000B8EE411A9FED3D2AC2EE011A9FED391ACF
:1023700080EE012A334E20363668C6F3080601EE99
:10238000106AB8EE411A32EE011AB7EE002A31EEA9
:10239000021A61EE810A3DE04EE01DE001EE101AE6
:1023A000B8EE411ADFED2E1A81EE812A9FED291A2F
:1023B000C0EE011A234E20363668C6F3080601EE39
:1023C000106AB8EE411A31EE811AF7EE001A31EEBA
:1023D000211A62EE010A1DE001EE101AB8EE411A50
:1023E0009FED1E2AC2EE011A9FED1A1A80EE012AF5
:1023F000144E20363668C6F3080601EE106AB8EEB1
:10240000411A32EE011AB7EE002A31EE021A61EEDD
:10241000810A00BF00BF0B4E20363668C6F3462641
:10242000721C01EE102AB8EE411AC0EE811ABCEE01
:10243000E11A11EE100A00E0002001E0034800BF9D
:1024400000BFF0BD104402580090D00300093D00C9
:1024500040787D01000000460024744C0024744A3A
:1024600020BCBE4B2DE9F047044614B90120BDE85D
:10247000F087207800F00100002872D0F948006849
:1024800000F03808F7481830D0F80090B8F1100F75
:1024900006D0B8F1180F0FD109F0030002280BD1B4
:1024A000F04810380068C0F3404000286ED06068E3
:1024B00000286BD10120DAE700BF6068B0F5803FEB
:1024C00008D1E8481038006840F48030E5491039F8
:1024D00008602EE0606868B9E2481038006820F4AF
:1024E0008030E049103908600846006820F48020F8
:1024F00008601EE06068B0F5A02F0DD1D9481038F3
:10250000006840F48020D749103908600846006808
:1025100040F4803008600CE0D2481038006820F4A5
:102520008030D049103908600846006820F48020C7
:10253000086000BF6068A8B1FEF704FC054608E02B
:10254000FEF700FC401B41F28831884201D903208C
:102550008DE7C44810380068C0F340400028EFD031
:1025600014E014E0FEF7EEFB054608E0FEF7EAFB98
:10257000401B41F28831884201D9032077E7B948EE
:1025800010380068C0F340400028EFD100BF207829
:1025900000F0020002286BD1B248006800F0380851
:1025A000B0481830D0F80090B8F1000F05D0B8F15D
:1025B000180F2BD109F0030040BBAA48103800685F
:1025C000C0F3800018B1E06808B901204FE700BFF0
:1025D000FEF7B2FB41F2030188420BD8A1480C3848
:1025E000006820F47C30216940EA01309D490C39B3
:1025F00008600AE09B480C38006820F0FE40217C0F
:1026000040EA016097490C39086058E0E06870B30F
:1026100094481038006820F01900E1680843914997
:1026200010390860FEF78EFB054606E0FEF78AFBD0
:10263000401B022801D9032019E78A481038006896
:10264000C0F380000028F1D000BFFEF775FB41F217
:10265000030188420DD883480C38006820F47C3090
:10266000216940EA01307F490C3908600CE00CE038
:1026700026E07C480C38006820F0FE40217C40EACF
:10268000016078490C39086019E076481038006814
:1026900020F00100734910390860FEF753FB05462E
:1026A00006E0FEF74FFB401B022801D90320DEE6BF
:1026B0006C4810380068C0F380000028F1D100BFDA
:1026C000207800F0100010286ED16648006800F0F5
:1026D000380864481830D0F80090B8F1080F06D0D8
:1026E000B8F1180F2FD109F0030001282BD15D4854
:1026F00010380068C0F3002020B1E069802801D0C4
:102700000120B4E600BFFEF717FB41F20301884247
:102710000CD854480C38006820F0F84094F8201089
:1027200040EA81604F490C3908600BE04D48001FBA
:10273000006820F07C5094F8201040EA016049497C
:10274000091F086058E0E06968B34648103800681F
:1027500040F08000434910390860FEF7F3FA05465F
:1027600006E0FEF7EFFA401B022801D903207EE6BF
:102770003C4810380068C0F300200028F1D000BFAA
:10278000FEF7DAFA41F2030188420ED835480C38D8
:10279000006820F0F84094F8201040EA8160314948
:1027A0000C3908600DE00DE027E02E48001F00689E
:1027B00020F07C5094F8201040EA01602949091F5C
:1027C000086019E027481038006820F0800025498B
:1027D00010390860FEF7B6FA054606E0FEF7B2FAD1
:1027E000401B022801D9032041E61E48103800682A
:1027F000C0F300200028F1D100BF207800F00800CD
:10280000082837D16069D0B116486430006840F0BC
:102810000100144964310860FEF794FA054606E0A9
:10282000FEF790FA401B022801D903201FE60D484D
:1028300064300068C0F340000028F1D01AE0094875
:102840006430006820F00100064964310860FEF73A
:1028500079FA054608E0FEF775FA401B022803D90D
:10286000032004E610440258DC480068C0F340002E
:102870000028F0D1207800F02000202836D1A0696F
:10288000D0B1D6487438006840F48050D3497439C8
:102890000860FEF757FA054606E0FEF753FA401BBC
:1028A000022801D90320E2E5CC4874380068C0F35F
:1028B00040300028F1D019E0C8487438006820F48E
:1028C0008050C64974390860FEF73CFA054606E0B8
:1028D000FEF738FA401B022801D90320C7E5BF489C
:1028E00074380068C0F340300028F1D1207800F03F
:1028F000040004287DD1BA48006840F48070B849CB
:102900000860FEF71FFA054606E0FEF71BFA401BBB
:10291000642801D90320AAE5B148006800F480705A
:102920000028F2D000BFA068012808D1AB48001FE2
:10293000006840F00100A949091F08602DE0A06867
:1029400068B9A648001F006820F00100A349091FCC
:1029500008600846006820F0040008601DE0A068D8
:1029600005280DD19D48001F006840F004009B49D8
:10297000091F08600846006840F0010008600CE08C
:102980009648001F006820F001009449091F086064
:102990000846006820F00400086000BFA068A0B1ED
:1029A000FEF7D0F9054608E0FEF7CCF9401B41F2EE
:1029B0008831884201D9032059E58848001F006802
:1029C000C0F340000028EFD013E0FEF7BBF9054646
:1029D00008E0FEF7B7F9401B41F28831884201D97F
:1029E000032044E57D48001F0068C0F34000002834
:1029F000EFD1606A00287DD078486438006800F024
:102A00003800182877D0606A022875D17348743866
:102A1000006820F08070714974390860FEF792F9FF
:102A2000054606E0FEF78EF9401B022801D9032077
:102A30001DE56A4874380068C0F340600028F1D191
:102A400000BFD4E90A1041EA001064494C39096812
:102A500040F2F3329143084360494C390860208EBC
:102A6000401EC0F30800616B491E4FF47E4202EA2B
:102A700041210843218F491ED20102EA0141084346
:102A80003C21095D491E120202EA016108435349D3
:102A90004439086000BF081F006820F00100091FCA
:102AA00008604E48403800684FF6F8718843A16CC2
:102AB00040EAC10049494039086048484838006840
:102AC00020F00C00216C084344494839086008464E
:102AD000006820F00200616C0843404948390860F2
:102AE0000846006840F4803008600846006840F4FA
:102AF000003002E06FE041E025E008600846006831
:102B000040F4802008600846006840F0010008603A
:102B100032487438006840F0807030497439086079
:102B2000FEF710F9054606E0FEF70CF9401B0228F7
:102B300001D903209BE4294874380068C0F3406041
:102B40000028F1D047E025487438006820F08070F4
:102B5000224974390860FEF7F5F8054606E0FEF7ED
:102B6000F1F8401B022801D9032080E41B48743887
:102B70000068C0F340600028F1D12CE017484C38C1
:102B80000768164844380668606A012821D007F0B3
:102B90000301A06A81421CD1C7F30511E06A884293
:102BA00017D1C6F30801206B401E814211D1606B22
:102BB000401EC6F3462188420BD1A06B401EC6F3CF
:102BC0000641884205D1E06B401EC6F3066188428B
:102BD00001D001204BE4002049E400007444025875
:102BE0000048025810B504460CB9012010BD02205F
:102BF00084F881002068006820F0010021680860E6
:102C0000204600F03BF90020C4F8840084F88100DD
:102C100000BF84F8800000BF00BFE7E770B504463E
:102C200000250CB9012070BD606A00B900BFA06A20
:102C3000B0F5800F00D100BF8D49206888420CD0CC
:102C40008C492068884208D08B492068884204D08B
:102C5000E0680F2801D90120E5E7204602F0A2FA3A
:102C6000064683492068884209D082492068884204
:102C700005D081492068884201D0082E0DD87C49B2
:102C80002068884207D07B492068884203D07A496F
:102C90002068884203D1102E01D90120C3E7A06A21
:102CA000B0F5800F1DD17249206888420DD071495E
:102CB0002068884209D070492068884205D0206B7E
:102CC000B0F5702F01D90120ADE7206B10B9A089B4
:102CD000050400E0256BE068B0EB154F01D9012039
:102CE000A1E794F8810028B9002084F880002046EC
:102CF00000F0D4F8022084F881002068006820F0F9
:102D0000010021680860A069B0F1806F0BD1606894
:102D1000B0F5800F07D1A06B28B92068006840F497
:102D2000805021680860A16AE06908432843E16B8C
:102D30000843E168084321688860616A606B084362
:102D4000A16B0843A16908432169084361690843ED
:102D5000216A084361680843E16C0843A16808439D
:102D6000A16C0843A16D08432168C860A06AB0F552
:102D7000800F4DD1206C012806D12068006840F4F6
:102D800000402168086005E02068006820F40040E9
:102D900021680860606C012806D12068006840F452
:102DA00080402168086005E02068006820F48040C9
:102DB000216808602E49206888420AD02D49206881
:102DC000884206D02C492068884202D0B5F5702F81
:102DD0000ED027492068884207D0264920688842BB
:102DE00003D025492068884209D1B5F5F81F06D1DE
:102DF0002068006840F400502168086005E0206801
:102E0000006820F40050216808602168E06A0864C6
:102E1000606888B9A06A38B92068806820F4C0501A
:102E200040F40060216888602068806820F4C060F9
:102E300040F48060216888602068006D20F0010007
:102E400021680865606800F48000B0F5800F07D144
:102E50002068C06820F00040616D08432168C860A8
:102E60000020C4F88400012084F881000020DAE604
:102E70000030014000380040003C0040054A016835
:102E8000914205D10449096821F48051024A116038
:102E90007047000000300140F044025808B5094A6C
:102EA000016891420DD100BF0749096841F4805182
:102EB000054A11601146096801F48051009100BF74
:102EC00000BF08BD00300140F044025870B5044610
:102ED0002546681EB0F1807F01D301200FE0681EF7
:102EE0004FF0E02148610F214FF0FF3002F028FC45
:102EF00000204FF0E021886107200861002070BDAC
:102F000070B504460D46164600BF94F83C000128F3
:102F100001D1022070BD012084F83C0000BF0220D6
:102F200084F83D000C2E51D005DC4EB1042E1ED08D
:102F3000082E7AD133E0102E60D0142EF9D175E02E
:102F40002946206802F00CFA2068806940F00800E9
:102F5000216888612068806920F004002168886108
:102F600020688069296908432168886177E02946DB
:102F7000206802F04BFA2068806940F40060216804
:102F800088612068806920F48060216888612068F9
:102F90008069296940EA0120216888615FE029464B
:102FA000206802F08DFA2068C06940F008002168AE
:102FB000C8612068C06920F004002168C8612068E9
:102FC000C069296908432168C86148E0294620682A
:102FD00002F0CEFA2068C06940F400602168C86140
:102FE0002068C06920F480602168C8612068C069D9
:102FF000296940EA01202168C86130E0294620683B
:1030000002F0EEFA2068406D40F008002168486543
:103010002068406D20F00400216848652068406DFC
:10302000296908432168486519E017E029462068A6
:1030300002F00CFB2068406D40F400602168486598
:103040002068406D20F48060216848652068406DEC
:10305000296940EA01202168486500E000BF00BFFF
:10306000012084F83D0000BF002084F83C0000BF30
:1030700000BF4FE710B504460CB9012010BD94F80D
:103080003D0028B9002084F83C00204600F00CF8F0
:10309000022084F83D00211D206802F0E9F801209B
:1030A00084F83D000020E9E77047000070B5044651
:1030B0000E4601223146206802F040F91749206887
:1030C00088420FD01649206888420BD015492068E5
:1030D000884207D014492068884203D013492068E9
:1030E000884201D1012000E0002028B12068406C16
:1030F00040F4004021684864206880680C4900EA78
:103100000105062D08D0B5F5803F05D02068006880
:1031100040F0010021680860002070BD00000140FF
:1031200000040140004001400044014000480140CB
:103130000700010030B504460D46002229462068EC
:1031400002F0FCF82149206888420FD0204920680D
:1031500088420BD01F492068884207D01E4920684A
:10316000884203D01D492068884201D1012000E037
:10317000002090B100BF2068006A41F211110840A0
:1031800050B92068006A8910084028B92068406C4E
:1031900020F400402168486400BF00BF2068006A36
:1031A00041F21111084050B92068006A89100840A6
:1031B00028B92068006820F001002168086000BF7D
:1031C000012084F83D00002030BD000000000140D7
:1031D000000401400040014000440140004801401B
:1031E00070477047704770472DE9F04704462068E4
:1031F000C569206806682068876840F60F0005EA00
:103200000008B8F1000F0FD105F0200060B106F002
:10321000200010B907F0805030B1E06E10B12046A8
:10322000E16E8847BDE8F087B8F1000F7ED06E48A8
:10323000384018B96D4830400028F7D005F001003B
:1032400058B106F4807040B1012021680862D4F8BA
:10325000880040F00100C4F8880005F0020058B171
:1032600007F0010040B1022021680862D4F888000C
:1032700040F00400C4F8880005F0040058B107F0DD
:10328000010040B1042021680862D4F8880040F0B1
:103290000200C4F8880005F0080070B106F02000B4
:1032A00010B95148384040B1082021680862D4F86C
:1032B000880040F00800C4F8880005F4006060B1A0
:1032C00006F0806048B14FF4006021680862D4F8CD
:1032D000880040F02000C4F88800D4F88800002856
:1032E00044D005F0200050B106F0200010B907F0DE
:1032F000805020B1E06E10B12046E16E8847D4F8CE
:1033000088902068806800F04000402802D009F0D2
:10331000280028B3204602F0DBF92068806800F01E
:103320004000402818D12068806800E01FE020F0AD
:10333000400021688860A06F50B12D48A16F0865DA
:10334000A06FFDF70BFA88B1A06F016D88470DE003
:103350002046FFF748FF09E02046FFF744FF05E05D
:103360002046FFF740FF0020C4F888005AE705F424
:10337000801050B107F4800038B14FF480102168FC
:1033800008622046FFF72EFF4CE705F0800058B199
:1033900006F0800010B907F4000028B1206F10B1CA
:1033A0002046216F88473DE705F0400030B106F028
:1033B000400018B1204602F09FF933E705F4000001
:1033C00030B106F0804018B12046FFF70AFF29E728
:1033D00005F0807030B106F0004018B12046FFF7CC
:1033E000FFFE1FE700BF1DE70100001020010004E1
:1033F000B9560008704700BFFEE701688969C1F34C
:10340000400111B10021026891620168896901F0EF
:10341000010129B90168896941F0010102689161DE
:103420007047000070B504460D4616462068806956
:10343000C0F3001000283DD017E0681CA8B1FDF7CC
:1034400081FC801BA84200D87DB9606C40F0200050
:103450006064202084F84100002084F8420000BF0E
:1034600084F8400000BF012070BD20688069C0F36F
:1034700040100028E1D010202168C8612020216878
:10348000C8612046FFF7B9FF206840680A49084034
:1034900021684860606C40F004006064202084F87B
:1034A0004100002084F8420000BF84F8400000BFC3
:1034B0000120D9E70020D7E700E800FEF0B5059C21
:1034C00005686D684FF4806606EA545666F0FC267F
:1034D00046F4C046B543C1F309064FF47F0707EA37
:1034E00002473E431E432643354306687560F0BDE0
:1034F0002DE9F04104460E4617461D46DDF81880BA
:1035000019E0681CB8B1FDF71DFCA0EB0800A8424B
:1035100000D885B9606C40F020006064202084F8F9
:103520004100002084F8420000BF84F8400000BF42
:103530000120BDE8F081206880693040B04201D1AF
:10354000012000E00020B842DBD00020F1E770B598
:1035500004460D4616461DE0324629462046FFF732
:1035600061FF08B1012070BDFDF7ECFB801BA84294
:1035700000D87DB9606C40F020006064202084F8A1
:103580004100002084F8420000BF84F8400000BFE2
:103590000120E8E720688069C0F340100028DBD0F4
:1035A0000020E0E770B504460D4616461FE032469F
:1035B00029462046FFF736FF08B1012070BD681C80
:1035C000A8B1FDF7BFFB801BA84200D87DB9606C95
:1035D00040F020006064202084F84100002084F83E
:1035E000420000BF84F8400000BF0120E6E72068E9
:1035F0008069C0F340000028D9D00020DEE7000039
:1036000000B587B0142102A8FCF7B1FF00BF28481D
:10361000006840F00100264908600846006800F094
:103620000100019000BF00BF00BF0846006840F0E5
:10363000020008600846006800F00200019000BF28
:1036400000BF20200290022003900020049002205E
:1036500005900520069002A91648FDF75BFA802028
:10366000029002A91348FDF755FA4020029002A9E2
:103670001048FDF74FFA0720029001200390002028
:1036800004900220059002A90B48FDF743FA01229D
:1036900011460948FDF74AFB002202210648FDF7C2
:1036A00045FB012204210448FDF740FB07B000BDA3
:1036B000E0440258000002580004025870B5054664
:1036C00049F2B40640F225137D220021084601F09C
:1036D0001DF9002403E0284601F076FA641CB44288
:1036E000F9D370BDF0B50246C2F10F06F1B2C1EBDD
:1036F00041160F2796FBF7F6F3B2C1EB811696FB46
:10370000F7F6F4B2C1EB411696FBF7F6F5B2DE021E
:1037100046EA44162E43B0B2F0BD000008B5FFF7EC
:103720006FFF00BFFE48006840F48050FC4908600D
:103730000846006800F48050009000BF00BFF948C0
:10374000F94908604FF4800048604FF4C021F64802
:1037500081600721C1600021016141614FF08061FA
:1037600081610901C161002101624162816241639D
:10377000C1634FF000414165FFF750FAEA48006825
:10378000006840F00100E8490968086001F0AAF803
:10379000FE2001F0E9F9012001F0FEF9F72001F027
:1037A000E3F9962001F0F8F9132001F0F5F9A920CA
:1037B00001F0F2F9902001F0D7F9012001F0ECF9C5
:1037C0002C2001F0D1F9192001F0E6F90B2001F0CD
:1037D000E3F9242001F0E0F91B2001F0DDF91B20C2
:1037E00001F0DAF91B2001F0D7F9AA2001F0D4F991
:1037F000502001F0D1F9012001F0CEF9162001F09E
:10380000CBF9042001F0C8F9042001F0C5F9042027
:1038100001F0C2F9D72001F0BFF92D2001F0A4F981
:10382000662001F0B9F9562001F0B6F9552001F0F3
:10383000B3F92E2001F098F9242001F0ADF904200D
:1038400001F0AAF93F2001F0A7F9302001F0A4F916
:10385000302001F0A1F9A82001F09EF9B82001F074
:103860009BF9B82001F098F9072001F095F9332071
:1038700001F07AF9032001F08FF9032001F08CF9AF
:10388000032001F089F9192001F086F9192001F0CF
:1038900083F9192001F080F9132001F07DF913203C
:1038A00001F07AF9132001F077F91A2001F074F988
:1038B0001A2001F071F91A2001F06EF9102001F0C0
:1038C00053F90B2001F068F9082001F065F9642034
:1038D00001F062F9AE2001F05FF90B2001F05CF914
:1038E000082001F059F9642001F056F9AE2001F0EA
:1038F00053F9002001F050F9802001F04DF900202B
:1039000001F04AF9002001F047F9012001F044F9E3
:10391000112001F029F9012001F03EF91E2001F0EB
:103920003BF9012001F038F91E2001F035F90020A3
:1039300001F032F9032001F017F9932001F02CF97E
:103940001C2001F029F9002001F026F9012001F0E6
:1039500023F97E2001F020F9192001F005F900205B
:1039600001F01AF9312001F0FFF81B2001F014F9E1
:10397000002001F011F9062001F00EF9052001F0F8
:103980000BF9052001F008F9052001F005F93520B3
:1039900001F0EAF8002001F0FFF8802001F0FCF8C7
:1039A000802001F0F9F8002001F0F6F8122001F073
:1039B000DBF81B2001F0F0F81A2001F0D5F8012007
:1039C00001F0EAF8202001F0E7F8002001F0E4F827
:1039D000082001F0E1F8012001F0DEF8062001F0F6
:1039E000DBF8062001F0D8F8062001F0D5F87420A5
:1039F00001F0BAF8BD2001F0CFF8002001F0CCF8BA
:103A0000012001F0C9F8082001F0C6F8012001F0FA
:103A1000C3F8BB2001F0C0F8982001F0BDF86C207D
:103A200001F0A2F8DC2001F0B7F8082001F0B4F8AA
:103A3000022001F0B1F8012001F0AEF8082001F0F9
:103A4000ABF8012001F0A8F8302001F0A5F808201B
:103A500001F0A2F8002001F09FF86D2001F084F839
:103A6000DC2001F099F8082001F096F8022001F01E
:103A700093F8012001F090F8082001F08DF8022061
:103A800001F08AF8302001F087F8082001F084F86E
:103A9000002001F081F8762001F066F8DA2001F0CC
:103AA0007BF8002001F078F8022001F075F8202062
:103AB00001F072F8392001F06FF8802001F06CF805
:103AC000802001F069F8502001F066F8052001F02F
:103AD00063F86E2001F048F8DC2001F05DF800206A
:103AE00001F05AF8022001F057F8012001F054F8D3
:103AF000002001F051F8022001F04EF84F2001F0B3
:103B00004BF8022001F048F8002001F045F86F2042
:103B100001F02AF8DC2001F03FF8002006E0000068
:103B2000F0440258003001402002002001F034F837
:103B3000022001F031F8012001F02EF8002001F000
:103B40002BF8012001F028F84F2001F025F8022081
:103B500001F022F8002001F01FF8802001F004F8A5
:103B6000BD2001F019F8002001F016F8012001F045
:103B700013F8082001F010F8012001F00DF8BB2027
:103B800001F00AF8982001F007F8782000F0ECFF27
:103B9000DC2001F001F8082000F0FEFF022000F018
:103BA000FBFF012000F0F8FF082000F0F5FF0120E6
:103BB00000F0F2FF302000F0EFFF082000F0ECFFF3
:103BC000002000F0E9FF792000F0CEFFDC2000F0BB
:103BD000E3FF082000F0E0FF022000F0DDFF0120FD
:103BE00000F0DAFF082000F0D7FF022000F0D4FF39
:103BF000302000F0D1FF082000F0CEFF002000F0C0
:103C0000CBFF822000F0B0FFDA2000F0C5FF40209B
:103C100000F0C2FF022000F0BFFF202000F0BCFF38
:103C2000392000F0B9FF002000F0B6FF802000F03E
:103C3000B3FF502000F0B0FF052000F0ADFF7A2068
:103C400000F092FFDC2000F0A7FF002000F0A4FFAE
:103C5000022000F0A1FF012000F09EFF002000F0F4
:103C60009BFF022000F098FF4F2000F095FF0220FC
:103C700000F092FF002000F08FFF7B2000F074FF27
:103C8000DC2000F089FF002000F086FF022000F019
:103C900083FF012000F080FF002000F07DFF012065
:103CA00000F07AFF4F2000F077FF022000F074FF51
:103CB000002000F071FF842000F056FF012000F08A
:103CC0006BFF002000F068FF092000F065FF19205D
:103CD00000F062FF192000F05FFF192000F05CFF88
:103CE000192000F059FF192000F056FF192000F0AC
:103CF00053FF192000F050FF852000F035FF1920F8
:103D000000F04AFF192000F047FF192000F044FF9F
:103D1000032000F041FF022000F03EFF082000F0E9
:103D20003BFF192000F038FF192000F035FF192063
:103D300000F032FF192000F02FFF202000F014FFC8
:103D4000202000F029FF002000F026FF082000F0CE
:103D500023FF002000F020FF022000F01DFF0020C4
:103D600000F01AFF402000F017FF002000F014FFC1
:103D7000102000F011FF002000F00EFF042000F0E2
:103D80000BFF002000F008FF1E2000F0EDFE402099
:103D900000F002FF002000F0FFFE102000F0FCFE0B
:103DA000002000F0F9FE042000F0F6FE002000F0F4
:103DB000F3FE202000F0F0FE002000F0EDFE0820D1
:103DC00000F0EAFE002000F0E7FE022000F0E4FE32
:103DD000002000F0E1FE242000F0C6FE202000F0CC
:103DE000DBFE002000F0D8FE082000F0D5FE002009
:103DF00000F0D2FE022000F0CFFE002000F0CCFE4A
:103E0000402000F0C9FE002000F0C6FE102000F0A7
:103E1000C3FE002000F0C0FE042000F0BDFE002024
:103E200000F0BAFE222000F09FFE402000F0B4FE19
:103E3000002000F0B1FE102000F0AEFE002000F0E7
:103E4000ABFE042000F0A8FE002000F0A5FE20201C
:103E500000F0A2FE002000F09FFE082000F09CFE73
:103E6000002000F099FE022000F096FE002000F0F5
:103E700093FE132000F078FE632000F08DFE5220A8
:103E800000F08AFE412000F087FE142000F06CFE56
:103E9000362000F081FE252000F07EFE142000F088
:103EA0007BFE152000F060FE632000F075FE5220BE
:103EB00000F072FE412000F06FFE162000F054FE6C
:103EC000362000F069FE252000F066FE142000F088
:103ED00063FE1D2000F048FE102000F05DFE002073
:103EE00000F05AFE002000F057FE2A2000F03CFEB1
:103EF0000D2000F051FE072000F04EFE272000F0BC
:103F000033FE002000F048FE012000F045FE0220B4
:103F100000F042FE032000F03FFE042000F03CFED3
:103F2000052000F039FE282000F01EFE002000F0E1
:103F300033FE012000F030FE022000F02DFE0320B1
:103F400000F02AFE042000F027FE052000F024FEE9
:103F5000262000F009FE012000F01EFE012000F0E6
:103F60001BFE862000F000FE012000F015FE01205F
:103F700000F012FEFE2000F0F7FD022000F00CFE23
:103F8000162000F0F1FD812000F006FE432000F035
:103F900003FE232000F000FE1E2000F0FDFD0320A4
:103FA00000F0FAFDFE2000F0DFFD032000F0F4FD3C
:103FB000602000F0D9FD012000F0EEFD612000F04E
:103FC000D3FD002000F0E8FD002000F0E5FD00201A
:103FD00000F0E2FD002000F0DFFD112000F0DCFD2C
:103FE000002000F0D9FD0D2000F0D6FD262000F0C5
:103FF000D3FD5A2000F0D0FD802000F0CDFD8020C0
:1040000000F0CAFD952000F0C7FDF82000F0C4FDC7
:104010003B2000F0C1FD752000F0BEFD622000F0E5
:10402000A3FD212000F0B8FD222000F0B5FD3220D4
:1040300000F0B2FD432000F0AFFD442000F0ACFDE5
:10404000D72000F0A9FD0A2000F0A6FD592000F0BD
:10405000A3FDA12000F0A0FDE12000F09DFD522075
:1040600000F09AFDB72000F097FD112000F094FDBC
:10407000642000F091FDB12000F08EFD632000F07F
:1040800073FD542000F088FD552000F085FD66206A
:1040900000F082FD062000F07FFDFB2000F07CFD9B
:1040A0003F2000F079FD812000F076FDC62000F071
:1040B00073FD062000F070FD452000F06DFD8320AB
:1040C00000F06AFD642000F04FFD002000F064FD68
:1040D000002000F061FD112000F05EFD112000F0D5
:1040E0005BFD212000F058FD002000F055FD23204D
:1040F00000F052FD6A2000F04FFDF82000F04CFD6A
:10410000632000F049FD672000F046FD702000F0BC
:1041100043FDA52000F040FDDC2000F03DFD022025
:1041200000F03AFD652000F01FFD222000F034FD74
:10413000222000F031FD322000F02EFD432000F05F
:104140002BFD442000F028FD242000F025FD442014
:1041500000F022FD822000F01FFDC12000F01CFDB8
:10416000F82000F019FD612000F016FDBF2000F0DE
:1041700013FD132000F010FD622000F00DFDAD20B6
:1041800000F00AFD662000F0EFFC542000F004FD72
:10419000552000F001FD652000F0FEFC062000F037
:1041A000FBFCF52000F0F8FC372000F0F5FC762051
:1041B00000F0F2FCB82000F0EFFCF52000F0ECFC81
:1041C000312000F0E9FC6C2000F0E6FC672000F0F4
:1041D000CBFC002000F0E0FC102000F0DDFC2220F1
:1041E00000F0DAFC222000F0D7FC222000F0D4FC02
:1041F000002000F0D1FC372000F0CEFCA42000F01D
:10420000CBFC7E2000F0C8FC222000F0C5FC25205D
:1042100000F0C2FC2C2000F0BFFC4C2000F0BCFCE5
:10422000722000F0B9FC9A2000F0B6FC682000F083
:104230009BFC222000F0B0FC332000F0ADFC4320BA
:1042400000F0AAFC442000F0A7FC552000F0A4FCDC
:10425000C12000F0A1FCE52000F09EFC2D2000F024
:104260009BFC6F2000F098FCAF2000F095FC232011
:1042700000F092FC8F2000F08FFCF32000F08CFC0B
:10428000502000F089FCA62000F086FC692000F098
:104290006BFC652000F080FC662000F07DFC772040
:1042A00000F07AFC072000F077FCFD2000F074FCA1
:1042B0004E2000F071FC9C2000F06EFCED2000F020
:1042C0006BFC392000F068FC862000F065FCD320F0
:1042D00000F062FCFE2000F047FC052000F05CFCD2
:1042E000612000F041FC002000F056FC312000F07D
:1042F00053FC442000F050FC542000F04DFC5520AD
:1043000000F04AFC002000F047FC922000F044FC42
:10431000B52000F041FC882000F03EFC192000F0A0
:104320003BFC902000F038FCE82000F035FC3E20FB
:1043300000F032FC712000F02FFCA52000F02CFCD6
:10434000622000F011FC552000F026FC662000F0F1
:1043500023FC762000F020FC772000F01DFC882054
:1043600000F01AFCCE2000F017FCF22000F014FC44
:10437000322000F011FC6E2000F00EFCC42000F092
:104380000BFC342000F008FC8B2000F005FCD92049
:1043900000F002FC2A2000F0FFFB7D2000F0FCFB77
:1043A000632000F0E1FB982000F0F6FB992000F07C
:1043B000F3FBAA2000F0F0FB0A2000F0EDFBDC206C
:1043C00000F0EAFB2E2000F0E7FB7D2000F0E4FB8C
:1043D000C32000F0E1FB0D2000F0DEFB5B2000F0CD
:1043E000DBFB9E2000F0D8FB642000F0BDFB00202A
:1043F00000F0D2FB312000F0CFFB442000F0CCFBDA
:10440000542000F0C9FB552000F0C6FB002000F04E
:10441000C3FBA22000F0C0FBE52000F0BDFBCD20D7
:1044200000F0BAFB5C2000F0B7FB942000F0B4FB76
:10443000CF2000F0B1FB092000F0AEFB4A2000F0D5
:10444000ABFB722000F0A8FB652000F08DFB55202F
:1044500000F0A2FB652000F09FFB662000F09CFBB3
:10446000772000F099FB872000F096FB9C2000F05D
:1044700093FBC22000F090FBFF2000F08DFB362064
:1044800000F08AFB6A2000F087FBEC2000F084FB40
:10449000452000F081FB912000F07EFBD82000F049
:1044A0007BFB202000F078FB662000F05DFB88207D
:1044B00000F072FB982000F06FFB992000F06CFB7D
:1044C0000A2000F069FB682000F066FBB02000F0D5
:1044D00063FBFB2000F060FB432000F05DFB8C20C1
:1044E00000F05AFBD52000F057FB0E2000F054FBE3
:1044F000672000F039FB002000F04EFB422000F066
:104500004BFB552000F048FB552000F045FB5520A3
:1045100000F042FB002000F03FFBCB2000F03CFB12
:10452000622000F039FBC52000F036FB092000F0C6
:1045300033FB442000F030FB722000F02DFBA9205B
:1045400000F02AFBD62000F027FBFD2000F024FB22
:10455000682000F009FB662000F01EFB662000F0DA
:104560001BFB772000F018FB872000F015FB98203C
:1045700000F012FB212000F00FFB452000F00CFBA7
:10458000962000F009FBED2000F006FB292000F04A
:1045900003FB902000F000FBEE2000F0FDFA4B2022
:1045A00000F0FAFAB12000F0F7FA132000F0F4FA64
:1045B000692000F0D9FA992000F0EEFAAA2000F064
:1045C000EBFABA2000F0E8FA0B2000F0E5FA6A20D6
:1045D00000F0E2FAB82000F0DFFA0D2000F0DCFA7B
:1045E000622000F0D9FAB82000F0D6FA0E2000F0D0
:1045F000D3FA542000F0D0FAFE2000F0B5FA0720DC
:1046000000F0CAFA3E2000F0AFFA002000F0C4FA31
:10461000422000F0A9FA032000F0BEFA102000F0BA
:10462000BBFA4A2000F0A0FA312000F0B5FA5C2075
:1046300000F09AFA012000F0AFFA3C2000F094FA62
:10464000072000F0A9FA002000F0A6FA242000F0CC
:10465000A3FA042000F0A0FA3F2000F09DFAE22027
:1046600000F09AFA442000F07FFA032000F094FA58
:10467000402000F091FA3F2000F08EFA022000F076
:104680008BFA122000F070FAAA2000F085FAAA2016
:1046900000F082FAC02000F07FFAC82000F07CFA17
:1046A000D02000F079FAD82000F076FAE02000F06F
:1046B00073FAE82000F070FAF02000F06DFAF820AC
:1046C00000F06AFA112000F04FFAAA2000F064FA14
:1046D000AA2000F061FAAA2000F05EFA602000F043
:1046E0005BFA682000F058FA702000F055FA782044
:1046F00000F052FA802000F04FFA882000F04CFAC7
:10470000902000F049FA982000F046FAA02000F02E
:1047100043FAA82000F040FAB02000F03DFAB8209B
:1047200000F03AFA102000F01FFAAA2000F034FA44
:10473000AA2000F031FAAA2000F02EFA002000F0A2
:104740002BFA082000F028FA102000F025FA182093
:1047500000F022FA202000F01FFA282000F01CFAB6
:10476000302000F019FA382000F016FA402000F04E
:1047700013FA482000F010FA502000F00DFA5820EB
:1047800000F00AFA142000F0EFF9032000F004FA18
:104790001F2000F001FA3F2000F0FEF95F2000F03A
:1047A000FBF97F2000F0F8F99F2000F0F5F9BF2019
:1047B00000F0F2F9DF2000F0EFF9032000F0ECF94F
:1047C0001F2000F0E9F93F2000F0E6F95F2000F03B
:1047D000E3F97F2000F0E0F99F2000F0DDF9BF2031
:1047E00000F0DAF9DF2000F0D7F9182000F0BCF96A
:1047F000702000F0D1F91A2000F0B6F9222000F064
:10480000CBF9BB2000F0C8F9AA2000F0C5F9FF20C1
:1048100000F0C2F9242000F0BFF9712000F0BCF9CB
:104820000F2000F0B9F9012000F0B6F9002000F0E7
:10483000B3F9032000F0B0F9FE2000F095F9002054
:1048400000F0AAF9362000F08FF9C02000F0A4F99A
:104850003A2000F089F9552000F09EF9C42000F0BC
:1048600083F9802000F098F92A2000F07DF90020DB
:1048700000F092F9002000F08FF9002000F08CF990
:104880007D2000F089F92B2000F06EF9002000F067
:1048900083F9002000F080F9012000F07DF9252047
:1048A00000F07AF9352000F05FF9002000F074F98B
:1048B000532000F059F9282000F06EF9512000F043
:1048C00053F9FF2000F068F9112000F04DF978202D
:1048D000FCF710F9292000F047F90120FCF70AF94C
:1048E00008BD000010B5002204210748FCF71EFA9D
:1048F0007820FCF7FFF8012204210348FCF716FAA0
:104900007820FCF7F7F810BD000402582DE9F041BB
:1049100004460D4616461F462A2000F025F92012AF
:1049200000F03AF9E0B200F037F9301200F034F953
:10493000F0B200F031F92B2000F016F9281200F047
:104940002BF9E8B200F028F9381200F025F9F8B296
:1049500000F022F92C2000F007F9BDE8F0810000FA
:104960002DE9F04F89B006460F4692469B467E2EB3
:1049700002DAB7F5937F02DB09B0BDE8F08F06EBF2
:104980000A00401E7E2803DA06EB0A00401E00E003
:104990007D2080B2089007EB0B00401EB0F5937F9E
:1049A00003DA07EB0B00401E01E040F2251081B254
:1049B000079139463046DDE90732FFF7A7FF08982F
:1049C000801B401C0799C91B491C48430690069848
:1049D000401C400803900024012202213148FCF7CA
:1049E000A5F9002201212F48FCF7A0F900254FE08E
:1049F0001298405D0190019800090590019800F01F
:104A00000F0004900598FEF76DFE81464FEA1922CB
:104A10002046641C24490A542046641C01F8009076
:104A2000012000EB4501069881420DD20498FEF763
:104A300059FE81464FEA19222046641C1A490A543D
:104A40002046641C01F8009047F23050844203D2A3
:104A5000681C039988421AD34FF0000813E0A4EBB6
:104A600008004EF66021884201D9084602E0A4EB16
:104A7000080080B202900C4901EB0800029900F096
:104A800059FB02988044A045E9D3002400BF6D1C67
:104A900003988542ACD3012211460248FCF746F93F
:104AA00000BF69E700040258A80200202DE9F84F72
:104AB00004460D469046994600267E2C02DAB5F54E
:104AC000937F01DBBDE8F88F04EB0800401E7E28D1
:104AD00003DA04EB0800401E00E07D201FFA80FA94
:104AE00005EB0900401EB0F5937F03DA05EB0900E2
:104AF000401E01E040F225101FFA80FB5B46524643
:104B000029462046FFF702FFAAEB0400401CABEB4E
:104B10000501491C48434700012202211148FCF7C6
:104B200005F9002201210F48FCF700F910E0B81B3D
:104B30004EF66021884201D9084601E0B81B80B2D8
:104B400000900A998819009900F0F4FA0098064438
:104B5000BE42ECD3012211460248FCF7E7F800BF41
:104B6000B0E700000004025801B500220221094804
:104B7000FCF7DCF8002201210648FCF7D7F80121F8
:104B8000684600F0D7FA012211460248FCF7CEF839
:104B900008BD00000004025801B5012202210948A5
:104BA000FCF7C4F8002201210648FCF7BFF80121F8
:104BB000684600F0BFFA012211460248FCF7B6F839
:104BC00008BD00000004025838B50446200A8DF8DC
:104BD0000000E0B28DF80100012202210848FCF734
:104BE000A5F8002201210648FCF7A0F8022168463A
:104BF00000F0A0FA012211460148FCF797F838BDF1
:104C000000040258704770472DE9F04104460E46F3
:104C100000275548006800F00300032802D1012056
:104C2000BDE8F08150482838006820F080604E4987
:104C300028390860FCF786F8054606E0FCF782F89C
:104C4000401B022801D90320EAE7474828380068BA
:104C5000C0F3C0600028F1D100BF4348006820F4D1
:104C60007C30216840EA01303F490860A088401E3E
:104C7000C0F30800A168491E4FF47E4202EA4121B8
:104C80000843A189491ED20102EA01410843217C5F
:104C9000491E120202EA01610843334910310860DB
:104CA00000BF3148001D006820F0C0006169084362
:104CB0002D49091D08600846006820F02000A16900
:104CC00008432949091D08600846006820F01000C3
:104CD00008602548143000684FF6F8718843E16990
:104CE00040EAC1002049143108601F48001D0068D7
:104CF00040F010001C49091D08602EB908460068E4
:104D000040F40020086012E0012E08D11648001D72
:104D1000006840F480101449091D086007E012483B
:104D2000001D006840F400100F49091D08600E487E
:104D30002838006840F080600B4928390860FCF78B
:104D400001F8054606E0FBF7FDFF401B022801D9EC
:104D5000032065E7044828380068C0F3C0600028D5
:104D6000F1D038465CE70000284402582DE9F041B4
:104D700004460E4600275548006800F0030003284B
:104D800002D10120BDE8F08150482838006820F0A9
:104D900080504E4928390860FBF7D4FF054606E0ED
:104DA000FBF7D0FF401B022801D90320EAE7474860
:104DB00028380068C0F340700028F1D100BF434894
:104DC000006820F07C70218840EA01503F4908606B
:104DD000A088401EC0F30800A168491E4FF47E421F
:104DE00002EA41210843A189491ED20102EA014198
:104DF0000843217C491E120202EA0161084333493B
:104E00001831086000BF3148001D006820F4406080
:104E1000616908432D49091D08600846006820F4AF
:104E20000070A16908432949091D08600846006807
:104E300020F48070086025481C3000684FF6F87137
:104E40008843E16940EAC10020491C3108601F48DD
:104E5000001D006840F480701C49091D08602EB9CF
:104E60000846006840F48000086012E0012E08D176
:104E70001648001D006840F400001449091D086030
:104E800007E01248001D006840F080700F49091DBE
:104E900008600E482838006840F080500B492839D7
:104EA0000860FBF74FFF054606E0FBF74BFF401B92
:104EB000022801D9032065E7044828380068C0F3B8
:104EC00040700028F1D038465CE7000028440258C2
:104ED00010B50023234C236000BF00BF00BFBFF309
:104EE0004F8F00BF00BF00BF231F1868C0F34E31B3
:104EF00000BFC0F3C90200BF43F6E07303EA4113E9
:104F00004FF0404404EA82742343174C236000BFEF
:104F100000BF131EA2F10102EED10B1EA1F101018F
:104F2000E7D100BF00BF00BFBFF34F8F00BF00BF7E
:104F300000BF0C4B703B1B6843F48033094C703C42
:104F4000236000BF00BF00BFBFF34F8F00BF00BF93
:104F500000BF00BF00BF00BFBFF36F8F00BF00BF27
:104F600000BF10BD84ED00E060EF00E000BF00BFB7
:104F700000BFBFF34F8F00BF00BF00BF00BF00BF27
:104F800000BFBFF36F8F00BF00BF00BF00201449F8
:104F9000086000BF00BF00BFBFF34F8F00BF00BF5E
:104FA00000BF00BF00BF00BFBFF36F8F00BF00BFD7
:104FB00000BF0C48006840F400300A49086000BF98
:104FC00000BF00BFBFF34F8F00BF00BF00BF00BFD7
:104FD00000BF00BFBFF36F8F00BF00BF00BF7047AF
:104FE00050EF00E014ED00E02DE9FC5F82460D4635
:104FF0001646FBF7A7FE83464D48046815B9012005
:10500000BDE8FC9FFBF79EFE074605E0FBF79AFE16
:10501000C01B0A2800D904E0606900F00A000028DB
:10502000F4D000BF4FF0FF30A06141480068006835
:1050300040F400603E4909680860206800F0010003
:1050400050B1206820F00100206000E000BF20681F
:1050500000F001000028F9D160686FF30F002843C9
:105060006060206840F00100206000BF00BF00BF0A
:1050700000BF2F484068B0F5800F03D1206840F48E
:10508000007020604FF000082BE0FBF75BFE019002
:105090000FE0FBF757FEA0EB0B00B04201D9002058
:1050A000AEE7FBF74FFE0199401A642801D90020B2
:1050B000A6E7606900F002000028EAD04046411CE3
:1050C0001FFA81F81AF8000084F82000606900F0E7
:1050D000010028B194F8300000909DF8000000BF56
:1050E00000BFA845D1DBFBF72DFE814613E0FBF79F
:1050F00029FEA0EB0B00B04201D9002080E7FBF7AE
:1051000021FEA0EB0900642805D9606900F4B070A5
:1051100008B1002074E7606900F0080020B96069F8
:1051200000F480500028E2D00820A061012067E749
:105130002002002070B506460D464CF250308542E4
:1051400002DD4FF47A7407E044F62060854202DD08
:105150004FF4FA7400E06424224629463046FFF7F3
:1051600043FF08B1012070BD0D48FDF73BFD4FF036
:1051700000710B48016149104161FDF74FFD08B115
:105180000020F0E706480068006840F0010004498C
:1051900009680860224629463046FFF725FFE2E706
:1051A0002002002010B501460124C86B04EB501307
:1051B000C868421CD01DC20802FB03F010BD704736
:1051C00010B5FCF723F810BD2448006840F47000C7
:1051D000224908602248006840F001002049086028
:1051E00000201F49103108601D4800681D49084013
:1051F0001B49086000201A4918310860091D086021
:10520000091D0860164928310860091D0860091D3C
:105210000860091D0860091D0860091D0860091D56
:105220000860091D08600E48006820F480200C49C1
:10523000086000200A49603108600B4800686FF37D
:105240000F00B0F1005F02D20120084908604FF062
:1052500000600249803908607047000088ED00E076
:10526000004402587FEDF6EA0010005C088100510E
:1052700010B50268294B98420ED0B0F1804F0BD088
:10528000274B984208D0274B984205D0264B98428E
:1052900002D0264B984203D122F070024B681A4389
:1052A0001E4B984217D0B0F1804F14D01C4B98423F
:1052B00011D01C4B98420ED01B4B98420BD01B4B6D
:1052C000984208D01A4B984205D01A4B984202D007
:1052D000194B984203D122F44072CB681A4322F052
:1052E00080034C6943EA040202608B68C3620B6866
:1052F00083620A4B98420BD00C4B984208D00C4B5F
:10530000984205D00B4B984202D00B4B984201D1EA
:105310000B6903630123436110BD000000000140DD
:105320000004004000080040000C00400004014060
:1053300000400140004401400048014030B501F008
:105340001F05012404FA05F3046A9C430462046AFD
:1053500001F01F0502FA05F52C43046230BD000080
:1053600030B5056A25F001050562026A4368846963
:10537000204D2C4024F003040D682C4322F002023F
:105380008D682A431C4DA84200D10FE01B4DA84256
:1053900000D10BE01A4DA84200D107E0194DA842F8
:1053A00000D103E0184DA84206D100BF22F0080248
:1053B000CD682A4322F004020F4DA8420BD00F4DB6
:1053C000A84208D00E4DA84205D00E4DA84202D0EA
:1053D0000D4DA84207D123F4807323F400734D6967
:1053E0002B438D692B43436084614D6845630262A2
:1053F00030BD00008FFFFEFF0000014000040140AF
:1054000000400140004401400048014030B5056AB9
:1054100025F010050562026A43688469224D2C401C
:1054200024F440740D6844EA052422F020028D68BB
:1054300042EA05121D4DA84200D10FE01C4DA842C2
:1054400000D10BE01B4DA84200D100BF1A4DA8426D
:1054500000D100BF194DA84207D106E022F080021A
:10546000CD6842EA051222F04002104DA8420BD04E
:105470000F4DA84208D00F4DA84205D00E4DA842AE
:1054800002D00E4DA84209D123F4806323F40063B7
:105490004D6943EA85038D6943EA8503436084616E
:1054A0004D688563026230BDFF8FFFFE0000014042
:1054B0000004014000400140004401400048014018
:1054C00030B5056A25F480750562026A4368C469CF
:1054D00024F0700424F003040D682C4322F40072BD
:1054E0008D6842EA05221D4DA84200D10FE01C4DF7
:1054F000A84200D10BE01B4DA84200D100BF1A4DBD
:10550000A84200D100BF194DA84207D106E022F4FD
:105510000062CD6842EA052222F480620F4DA84263
:105520000BD00F4DA84208D00E4DA84205D00E4D0D
:10553000A84202D00D4DA84209D123F4805323F490
:1055400000534D6943EA05138D6943EA051343602F
:10555000C4614D68C563026230BD000000000140B7
:105560000004014000400140004401400048014067
:1055700030B5056A25F480550562036A4468C2693E
:1055800022F4E04222F440720D6842EA052223F43C
:1055900000538D6843EA05330C4DA8420BD00C4DE7
:1055A000A84208D00B4DA84205D00B4DA84202D00E
:1055B0000A4DA84204D124F480444D6944EA85147C
:1055C0004460C2614D680564036230BD0000014063
:1055D00000040140004001400044014000480140F7
:1055E00030B5056A25F480350562046A4268436D6A
:1055F00023F070030D682B4324F400340D8944EA32
:1056000005440D4DA8420BD00C4DA84208D00C4DBE
:10561000A84205D00B4DA84202D00B4DA84204D1A0
:1056200022F480324D6942EA0522426043654D68AA
:105630008565046230BD00000000014000040140A7
:1056400000400140004401400048014030B5056A77
:1056500025F480150562036A4468426D22F4E04235
:105660000D6842EA052223F400130D8943EA05532D
:105670000C4DA8420BD00C4DA84208D00B4DA842AF
:1056800005D00B4DA84202D00A4DA84204D124F403
:1056900000344D6944EA8524446042654D68C5651F
:1056A000036230BD000001400004014000400140A1
:1056B000004401400048014070B50546AC6B002035
:1056C000A4F85E00A4F856002046FDF78CFD70BDDE
:1056D0000168096821F490710268116001688968A5
:1056E000044A1140026891602021C0F88410002112
:1056F000C1667047FEFFFFEF10B5044620680068E2
:1057000020F04000216808602020C4F880000020BC
:1057100020672046FDF76EFE10BD000010B5024860
:10572000FDF762FD10BD00006401002000BFFEE730
:1057300002480068C0F30220704700000CED00E052
:1057400010B5002804DB0A07130E054A135406E0BF
:105750000A07140E034A00F00F031B1FD45410BD98
:1057600000E400E018ED00E010B52DED028BB1EE85
:10577000C08A18EE100A20F00040C0F1FF40C00FB0
:105780000AD010EE100A20F00040C0F1FF40C00F18
:1057900004BF0120FAF71BFFB0EE480ABDEC028BF4
:1057A00010BD00BF7047000006280ED2DFE800F0F1
:1057B0000D030E04050900BF00BF0521064A117044
:1057C00008E00121044A117004E000BF0121024AEF
:1057D000117000BF00BF70470100002070B5134872
:1057E000007808B900F026F81048007800B970BDBC
:1057F000C825002410E0012211460D48FBF796FA57
:10580000FA2000F05DF8002201210948FBF78EFA2A
:10581000FA2000F055F8641CAC42ECD300220121C0
:105820000348FBF783FA00BFE1E700002D000020EA
:105830000008025800B587B0142102A8FAF797FEB5
:105840001448007808B107B000BD00BF00BF12487F
:10585000006840F00400104908600846006800F045
:105860000400019000BF00BF00BF01200290039020
:10587000002004900320059002A90848FBF74AF98C
:10588000002201210548FBF751FA01200149087067
:1058900000BFD8E72D000020E0440258000802585D
:1058A00001490860704700001800002010B5044648
:1058B0004FF47A7104FB01F000F002F810BD000013
:1058C00070B5034600224FF0E02675690D4E36682C
:1058D00003FB06F44FF0E026B16910E04FF0E0263C
:1058E000B06988420BD0884202D20E1A324402E0DC
:1058F0002E1A0E4432440146A24200D300E0EDE7E6
:1059000000BF70BD1800002010B50648007820B117
:1059100000F0E8FE002003490870002002490870EA
:1059200010BD0000080000200900002010B5002074
:10593000FDF7C4FE10BD10B50020FDF7BFFE10BD81
:1059400070B505460C46284600F024F8204600F0C5
:1059500001F870BD38B50446012C01DB052C00DDD3
:1059600038BD601E094951F8200078237E22AE21FF
:1059700000900020FEF7F4FF054828231A46AE21C8
:1059800000905620FFF792F800BFE9E7440000209E
:10599000067F000838B50446012C01DB052C00DD2C
:1059A00038BD601E054951F82000AE237E2200213B
:1059B00000900846FEF7D4FF00BFF1E7300000205A
:1059C0002DE9F04F8FB0814608200E90B7200D9042
:1059D0000E98453080B20C90D4200B904EF660208B
:1059E000B9FBF0FA4FF47A70B9FBF0F03C21B0FB50
:1059F000F1F201FB12000A90BAF1630F01D94FF0E6
:105A0000630A0A20BAFBF0F03030C0B28DF82000F3
:105A10000A20BAFBF0F100FB11A030308DF8210014
:105A20003A208DF822000A210A98B0FBF1F03030BC
:105A3000C0B28DF823000A98B0FBF1F201FB12000E
:105A400030308DF8240000208DF8250008A8FAF7E2
:105A50003DFDC6B2052E03D90526002008A98855AC
:105A60000024002005461CE008A9485D3A2801D121
:105A7000042100E00A2105A820F8151030F81500CF
:105A8000204484B2681CB04208D208AB6A1C995CFE
:105A900008AA505D01F0A3FF204484B2681CC0B284
:105AA0000546B542E0DB1427DDF838B00D980490C8
:105AB000462C05DAC4F146000BEB50001FFA80FBC0
:105AC0001E2F06DAC7F11E01049800EB510080B2C8
:105AD000049004FB07F003900398401C40080290D8
